:0A0A170000010202030304040505B8
:1002B700E4F513F512F511F510C203C200C202C22C
:1002C700011207287E067F008E238F24752B067563
:1002D7002C1275210675221C752906752A4A752D5B
:1002E70006752E78EE54C070030203B875140075B6
:1002F70015808E168F17C3749A9FFF74069ECF249E
:1003070002CF3400FEE48F0F8E0EF50DF50CF50BC2
:10031700F50AF509F508AF0FAE0EAD0DAC0CAB0B3A
:10032700AA0AA909A808C3120A065033E517250B1C
:10033700F582E516350AF583E0FFE515250BF5820D
:10034700E514350AF583EFF0E50B2401F50BE435E9
:100357000AF50AE43509F509E43508F50880B78593
:10036700142385152474002480FF740634FFFEC30C
:10037700E52C9FF52CE52B9EF52BC3E5269FF5264F
:10038700E5259EF525C3E5289FF528E5279EF52752
:10039700C3E5229FF522E5219EF521C3E52A9FF5B6
:1003A7002AE5299EF529C3E52E9FF52EE52D9EF515
:1003B7002DD2E843D82090E668E04409F090E65C47
:1003C700E0443DF0D2AF90E680E020E105D2041290
:1003D70008C990E680E054F7F0538EF8C203120480
:1003E7001E300105120080C2013003F2120A355097
:1003F700EDC20312094F20001690E682E030E704B1
:10040700E020E1EF90E682E030E604E020E0E4124D
:0704170008F8120A3780C744
:0B04F50090E50DE030E402C322D322AA
:1000800090E6B9E0700302013F1470030201BC2442
:10009000FE700302023F24FB700302013914700357
:1000A00002013314700302012714700302012D248E
:1000B0000560030202A3120A3940030202AF90E670
:1000C000BBE024FE602714603824FD601114602713
:1000D00024067050E52390E6B3F0E524803C12043A
:1000E000F5503EE52B90E6B3F0E52C802DE525900C
:1000F000E6B3F0E5268023E52790E6B3F0E5288017
:100100001990E6BAE0FF120924AA06A9077B01EAC2
:10011000494B600DEE90E6B3F0EF90E6B4F00202CA
:10012000AF02029E02029E1209E20202AF120A29E7
:100130000202AF120A210202AF1209D00202AF126C
:100140000A3B40030202AF90E6B8E0247F6015143A
:10015000601924027063A200E43325E0FFA202E4E8
:10016000334F8041E490E740F0803F90E6BCE0549C
:100170007EFF7E00E0D394807C0040047D018002FD
:100180007D00EC4EFEED4F2417F582740A3EF58398
:10019000E493FF3395E0FEEF24A1FFEE34E68F8277
:1001A000F583E0540190E740F0E4A3F090E68AF094
:1001B00090E68B7402F00202AF02029E120A3D40EA
:1001C000030202AF90E6B8E024FE6016240260034A
:1001D0000202AF90E6BAE0B40105C2000202AF022B
:1001E000029E90E6BAE0705590E6BCE0547EFF7E39
:1001F00000E0D394807C0040047D0180027D00EC0F
:100200004EFEED4F2417F582740A3EF583E493FF0A
:100210003395E0FEEF24A1FFEE34E68F82F583E014
:1002200054FEF090E6BCE05480131313541FFFE01B
:10023000540F2F90E683F0E04420F08072805F122C
:100240000A3F506B90E6B8E024FE60192402704E1D
:1002500090E6BAE0B40104D200805490E6BAE064BB
:1002600002604C803990E6BCE0547EFF7E00E0D313
:1002700094807C0040047D0180027D00EC4EFEED08
:100280004F2417F582740A3EF583E493FF3395E01B
:10029000FEEF24A1FFEE34E68F82F583800D90E619
:1002A000A080081205B8500790E6A0E04401F09045
:0602B000E6A0E04480F02E
:0102B6002225
:03003300020A318D
:040A310053D8EF3275
:1009F40042100300004110020041100000411001A8
:010A040000F1
:1007280090E600E054E74410F090E601E04440F021
:1007380090E61074A0F090E611F000000090E61228
:1007480074A2F000000090E61374A0F0000000907E
:10075800E61474E2F000000090E61574E0F0000082
:100768000090E6917480F0000000F000000090E630
:0A07780095F0000000F043AF0122ED
:10041E00E5AA20E066E5AA20E56174F0F59A74007D
:10042E00F59B74F8F59D7400F59E90E690E0FE90B5
:10043E00E691E07C002400F51BEC3EF51AE4F5187D
:10044E00F519C3E519951BE518951A501290E67B20
:10045E00E090E67CF00519E51970E7051880E39049
:10046E00E690E090E698F000000090E691E090E6CD
:10047E0099F000000090E6917480F0E5AA20E26603
:10048E00E5AA20E76174F4F59A7400F59B74FCF507
:10049E009D7400F59E90E694E0FE90E695E07C005B
:1004AE002400F51BEC3EF51AE4F518F519C3E51911
:1004BE00951BE518951A501290E67BE090E67CF0BD
:1004CE000519E51970E7051880E390E694E090E6CB
:1004DE009CF000000090E695E090E69DF000000094
:0604EE0090E6957480F019
:0104F40022E5
:020A3500D322CA
:020A3700D322C8
:020A3900D322C6
:080A210090E6BAE0F51DD322B6
:1009D00090E740E51DF0E490E68AF090E68B04F0A5
:0209E000D32220
:080A290090E6BAE0F51CD322AF
:1009E20090E740E51CF0E490E68AF090E68B04F094
:0209F200D3220E
:020A3B00D322C4
:020A3D00D322C2
:020A3F00D322C0
:1005B80090E6B9E02441602324EE600E0470359083
:1005C800E604E0F518431880800990E604E0F51881
:1005D80053187F000000E518F0801B90E74074BFB7
:1005E800F0E490E68AF090E68B04F090E6A0E04410
:0705F80080F08002C322C362
:0105FF0022D9
:10097400C0E0C083C082D2015391EF90E65D740160
:08098400F0D082D083D0E032F4
:1009A400C0E0C083C0825391EF90E65D7404F0D040
:0609B40082D083D0E03286
:1009BA00C0E0C083C0825391EF90E65D7402F0D02C
:0609CA0082D083D0E03270
:10089300C0E0C083C082852925852A2685268285D6
:1008A3002583A37402F08521278522288528828544
:1008B3002783A37407F05391EF90E65D7410F0D093
:0608C30082D083D0E03278
:10098C00C0E0C083C082D2035391EF90E65D74083F
:08099C00F0D082D083D0E032DC
:10085600C0E0C083C08290E680E030E72085212595
:10086600852226852682852583A37402F08529277D
:10087600852A28852882852783A37407F05391EF5C
:0D08860090E65D7420F0D082D083D0E03287
:010A41003282
:010A42003281
:010A43003280
:010A4400327F
:010A4500327E
:010A4600327D
:010A4700327C
:010A4800327B
:010A4900327A
:010A4A003279
:010A4B003278
:010A4C003277
:010A4D003276
:010A4E003275
:010A4F003274
:010A50003273
:010A51003272
:010A52003271
:010A53003270
:010A5400326F
:010A5500326E
:010A5600326D
:010A5700326C
:010A5800326B
:010A5900326A
:010A5A003269
:010A5B003268
:010A5C003267
:010A5D003266
:010A5E003265
:010A5F003264
:010A60003263
:010A61003262
:010A62003261
:010A63003260
:010A6400325F
:10078200AD07ED30E00D908000E0901000F0A3E0A6
:1007920054FEF0ED30E10D909000E0901000F0A3D7
:1007A200E054FDF0ED30E20D90A000E0901000F07A
:1007B200A3E054FBF0ED30E30D90B000E0901000A8
:0707C200F0A3E054F7F02260
:1007C900AD07ED30E00D908800E0901000F0A3E057
:1007D9004401F0ED30E10D909800E0901000F0A395
:1007E900E04402F0ED30E20D90A800E0901000F036
:1007F900A3E04404F0ED30E30D90B800E090100060
:07080900F0A3E04408F02217
:100600001201000200000040B404041000000102C6
:1006100000010A06000200000040010009022E004D
:1006200001010080320904000004FF0000000705FA
:10063000020200020007050402000200070586020C
:100640000002000705880200020009022E000101D5
:100650000080320904000004FF00000007050202C8
:100660004000000705040240000007058602400024
:10067000000705880240000004030904100343003A
:100680007900700072006500730073000E0345006E
:0C0690005A002D005500530042000000ED
:03004300020500B3
:03005300020500A3
:10050000020974000209BA000209A40002098C0061
:100510000208930002085600020A4100020A420043
:10052000020A4300020A4400020A4500020A460089
:10053000020A4700020A4800020A4900020A4A0069
:10054000020A4B00020A4200020A4C00020A4D0055
:10055000020A4E00020A4F00020A5000020A51002D
:10056000020A5200020A4200020A4200020A420043
:10057000020A5300020A5400020A5500020A5600F9
:10058000020A5700020A5800020A5900020A5A00D9
:10059000020A5B00020A5C00020A5D00020A5E00B9
:1005A000020A5F00020A6000020A6100020A620099
:0805B000020A6300020A640064
:1008F80090E682E030E004E020E60B90E682E0300B
:10090800E119E030E71590E680E04401F07F147EBD
:0C0918000012081090E680E054FEF0226F
:1008C90030040990E680E0440AF0800790E680E071
:1008D9004408F07FDC7E0512081090E65D74FFF095
:0F08E90090E65FF05391EF90E680E054F7F02235
:02092400A90721
:10092600AE2DAF2E8F828E83A3E064037017AD01C8
:1009360019ED7001228F828E83E07C002FFDEC3E44
:08094600FEAF0580DFE4FEFFB7
:01094E002286
:10094F0090E682E044C0F090E681F043870100001A
:04095F000000002272
:100810008E188F1990E600E054187012E519240123
:10082000FFE43518C313F518EF13F519801590E69A
:1008300000E05418FFBF100BE51925E0F519E51885
:1008400033F518E5191519AE18700215184E600524
:0608500012096380EE2294
:100963007400F58690FDA57C05A3E582458370F9A7
:010973002261
:0300000002069C59
:0C069C00787FE4F6D8FD75812E0206E39D
:100A0600EB9FF5F0EA9E42F0E99D42F0E89C45F046
:010A160022BD
:1006A8000202B7E493A3F8E493A34003F68001F2AF
:1006B80008DFF48029E493A3F85407240CC8C33353
:1006C800C4540F4420C8834004F456800146F6DF22
:1006D800E4800B01020408102040809009F4E47EB5
:1006E800019360BCA3FF543F30E509541FFEE49317
:1006F800A360010ECF54C025E060A840B8E493A3DE
:10070800FAE493A3F8E493A3C8C582C8CAC583CA08
:10071800F0A3C8C582C8CAC583CADFE9DEE780BEC0
:010A050000F0
:00000001FF
